:020000040000fa
:080000000001040000000000f3
:020000040000fa
:100008009401000094010000940100009401000094
:100018009401000094010000940100009401000084
:100028009401000094010000940100009401000074
:100038009401000094010000c00200009401000037
:1000480094010000c001000094010000f6010000c6
:100058009401000094010000940100009401000044
:100068009401000094010000940100009401000034
:100078009401000094010000940100009401000024
:100088009401000094010000940100009401000014
:100098009401000094010000940100009401000004
:1000a80094010000940100009401000094010000f4
:1000b80094010000940100009401000094010000e4
:1000c80094010000940100009401000094010000d4
:1000d80094010000940100009401000094010000c4
:1000e80094010000940100009401000094010000b4
:0800f8009401000094010000d6
:020000040000fa
:100108009401000094010000940100009401000093
:100118009401000094010000940100009401000083
:100128009401000094010000940100009401000073
:100138009401000094010000c00200009401000036
:1001480094010000c001000094010000f6010000c5
:100158009401000094010000940100009401000043
:100168009401000094010000940100009401000033
:100178009401000094010000940100009401000023
:100188009401000094010000940100009401000013
:100198009401000094010000940100009401000003
:1001a80094010000940100009401000094010000f3
:1001b80094010000940100009401000094010000e3
:1001c80094010000940100009401000094010000d3
:1001d80094010000940100009401000094010000c3
:1001e80094010000940100009401000094010000b3
:0801f8009401000094010000d5
:020000040000fa
:10020000cf8120000eff20000e01880000000000ba
:1002100000012000200288000c000700005620008a
:100220000100200011000700000020000000e00095
:10023000020032000000020000000000760302000d
:10024000000000000040da000000fe004440a90069
:10025000e00020000000e000030032000000200069
:10026000a00188004440a800000006009101880019
:10027000800078000000eb0015003700e2804000ad
:1002800032a0b4009101ba00e280400032a0b40074
:100290009102ba00e280400032a0b4000002eb00fc
:1002a000472bde00f507b200602ce10004003a00a5
:1002b0000059eb008301e900fdff3e000400370018
:1002c0006128e100010032000082eb000400070019
:1002d0001101ba000200e000e8ff3a000000060049
:1002e0003159ba008301e9000c0032002159ba00eb
:1002f0008301e900080032000400e00003003a0036
:10030000e280400032a0b400f5ff370011d9ba00f6
:100310008301e900faff3a008100e800e180400033
:1003200032a0b400000006000040da000000fe0029
:020000040000fa
:100330004e65000074610000636100006e200000e3
:0c034000756e00006f73000000000000ec
:020000040000fa
:10034c000000fa0004042000a41088000d42a8004c
:10035c008d20a80075108000c4ff2f00048262005d
:10036c00741088000de2a8000f42a8000080fa006b
:10037c0000000600849fbe00861f78003400f80041
:10038c0004002000a40188000000fa008520a900c8
:10039c00d640800094108000044278002581200013
:1003ac0085024300844a7800d4408000e50f520057
:1003bc0004003c00d44080000402e800d4408800d3
:1003cc00020037000002eb00d44088000080fa00e5
:1003dc003400f9004f0378004f02be0000400600c5
:1003ec00841f78003400f80004002000a401880069
:1003fc000000fa00041480000440880014148000eb
:10040c001440880024148000244088008560a900d2
:10041c000080fa003400f9004f027800004006001a
:10042c000200fa00000f7800000000007510800038
:10043c000410200004826200e00f5200fbff320027
:10044c006410800066026200e60f520003003a005e
:10045c001e0278008410880003003700f40f20007f
:10046c001e026200841088000080fa000000060062
:10047c000400fa00100798009e029000843e2000b1
:10048c00110009008482d80000027800044f780023
:10049c009e4278000582fb000403b0000400780043
:1004ac00dfff07001e4078008082fb0084c12f0014
:1004bc0004aab900040278009e0290000482420053
:1004cc00140798009e0290004406200011000900b9
:1004dc008482d80000027800044f78009e42780095
:1004ec000582fb000403b00004007800ccff070079
:1004fc001e4078008082fb00c4f92f0004aab900ca
:10050c00040278009e0290000482420014079800b6
:10051c009e029000a4002000110009008482d800e3
:10052c0000027800044f78009e4278000582fb00a0
:10053c000403b00004007800b9ff07001e407800e7
:10054c008082fb0064ff2f0004aab900040278002b
:10055c009e02900004824200140798001e02900034
:10056c000403b00004007800adff07000080fa001f
:10057c0000000600841f78003400f80004002000fe
:10058c00a40188000000fa000002eb003408880087
:10059c0084c0a9000080fa003400f9004f027800f2
:1005ac00004006000400fa00100798000002eb005f
:1005bc00040f7800080037001e0278009e0290009d
:1005cc0004824200144278000402fb00040078000c
:1005dc0093ff07001e0fe8001e0278009e02900099
:1005ec000482420014427800e04f5200f2ff3a00bd
:1005fc00d00020008aff07000080fa0000000600ef
:10060c000200fa00000f7800d4408000e50f520081
:10061c0031003c001e0278009442780034c4b300d0
:10062c0084cf520028003a001e02e8009442780061
:10063c00f4c4b30084cf520023003a001e82e800b9
:10064c009442780024c3b30084cf52001e003a00b9
:10065c009e027800638242009442780094c4b300f6
:10066c0084cf520018003a009e0278006482420047
:10067c0094427800e4c4b30084cf520012003a00d4
:10068c009e027800658242009442780064c4b300f4
:10069c0084cf52000c003a009e0278006682420021
:1006ac0094427800f4c4b30084cf520006003a00a0
:1006bc0014408000040078006dff0700d00020007b
:1006cc0057ff07000200370080192800b5ff07000c
:1006dc000002eb00d44088000080fa000000060005
:1006ec000400fa00000f7800110798000002eb00dc
:1006fc006440880003003700644080000402e80076
:10070c006440880065408000f4702200848f5200a1
:10071c00f9ff3600c6e2a800c742a800a942a9000a
:10072c00a8e2a900c602a800c622a800c642a800da
:10073c000002eb0094168800de42a900de62a900dc
:10074c0034332000444088000002eb005440880001
:10075c0003003700544080000402e8005440880035
:10076c0055408000f4a52e00848f5200f9ff36000e
:10077c00f3fe070094000700a1e2a800d202a90032
:10078c00143420006408880044012000040c880004
:10079c00843e2000140c880064ff2d00240c88007b
:1007ac0011e1a800444080006322b9008402780063
:1007bc0004408000848f520006003100d662a800ed
:1007cc00d642a800d622a800d702a800d722a8009b
:1007dc0005003700d662a900d642a900d622a9008e
:1007ec00d702a900d722a90044408000040242008d
:1007fc008402780014408000848f5200040036007c
:10080c000002eb00040c8800e242a900e262a9009d
:10081c0044408000040242008402780014408000ae
:10082c00848f52000a003100444080006322b900da
:10083c008402780014408000848f5200040036003b
:10084c00a4292000040c8800e242a800e262a9005e
:10085c00444080006322b900840278001440800078
:10086c00848f520004003100740a2000040c8800ac
:10087c00e262a800e242a900248120000400780072
:10088c005fff07000002eb00644088000d0037009a
:10089c000002eb00744088000300370074408000b5
:1008ac000402e800744088007540800074bb20008e
:1008bc00848f5200f9ff3600644080000402e80087
:1008cc006440880065408000743e2000848f520094
:1008dc00efff3600b3ff37000000fa008cc0a90010
:1008ec0011e1a90084c0a9000080fa0000000600f4
:1008fc000200fa00000f780084c0a9001e027800e4
:10090c0004427800674262006742620067426200fc
:10091c000482fb00670262004822dd00b6048000fe
:10092c00f58f2f008502630004827200b4048800e6
:10093c009e027800688262004322de000442780046
:10094c00614262000482fb00610262004622dd000b
:10095c0066048000f5fb2f008502630004827200a0
:10096c00640488000080fa00000006000400fa000d
:10097c00000f7800110798000002eb003408880083
:10098c001e029000640888001e027800840888000b
:10099c001061a9000080fa00000006000000fa00b7
:1009ac0034088000040078000080fa000000060083
:1009bc000200fa00000f78001e027800340888004c
:1009cc000080fa00000006000000fa00a1a2a900b5
:1009dc00041580000480a1000490a1000415880077
:1009ec00041580000450a0000460a0000470a00056
:1009fc0004158800a022a8001415800004d0a000c3
:100a0c0004e0a00004f0a00014158800a342a80084
:100a1c00141580000420a1000430a0000440a100a3
:100a2c000450a10014158800a222a900a202a9005a
:100a3c002515800004f02100048272002415880022
:100a4c00a4e2a8002515800004fc2f00048262009b
:100a5c00f401b30024158800a782a900a682a9007e
:100a6c00341580000400a1000410a1000420a10092
:100a7c000430a10034158800341580000480a100d6
:100a8c000490a10004a0a10004b0a10034158800ba
:100a9c000002eb00441588000488200054158800df
:100aac00a042a8008560a8008d60a8000080fa0014
:040abc000000060030
:020000040000fa
:100ac00000080000180000000000000018080000e6
:100ad0000400000002000000000000000000000010
:040ae0000000000012
:020000040000fa
:0200000401f009
:04000000e5bf000058
:020000040000fa
:0200000401f009
:04000400ff7f00007a
:00000001FF
